{
  "_format": "hh-sol-artifact-1",
  "contractName": "Lottery",
  "sourceName": "contracts/Lottery.sol",
  "abi": [
    {
      "inputs": [],
      "name": "getWinner",
      "outputs": [
        {
          "internalType": "address",
          "name": "",
          "type": "address"
        }
      ],
      "stateMutability": "view",
      "type": "function"
    },
    {
      "inputs": [
        {
          "internalType": "address[]",
          "name": "bidders",
          "type": "address[]"
        }
      ],
      "name": "winnerpick",
      "outputs": [],
      "stateMutability": "payable",
      "type": "function"
    }
  ],
  "bytecode": "0x608060405234801561001057600080fd5b5061060c806100206000396000f3fe6080604052600436106100295760003560e01c80638e7ea5b21461002e578063d201447514610059575b600080fd5b34801561003a57600080fd5b50610043610075565b6040516100509190610245565b60405180910390f35b610073600480360381019061006e91906103f9565b61009e565b005b60008060009054906101000a900473ffffffffffffffffffffffffffffffffffffffff16905090565b60008151116100e2576040517f08c379a00000000000000000000000000000000000000000000000000000000081526004016100d99061049f565b60405180910390fd5b600081516100f042846101cd565b6100fa91906104f8565b9050600060034761010b9190610529565b90508282815181106101205761011f61055a565b5b60200260200101516000806101000a81548173ffffffffffffffffffffffffffffffffffffffff021916908373ffffffffffffffffffffffffffffffffffffffff16021790555082828151811061017a5761017961055a565b5b602002602001015173ffffffffffffffffffffffffffffffffffffffff166108fc829081150290604051600060405180830381858888f193505050501580156101c7573d6000803e3d6000fd5b50505050565b60008282516040516020016101e39291906105aa565b6040516020818303038152906040528051906020012060001c905092915050565b600073ffffffffffffffffffffffffffffffffffffffff82169050919050565b600061022f82610204565b9050919050565b61023f81610224565b82525050565b600060208201905061025a6000830184610236565b92915050565b6000604051905090565b600080fd5b600080fd5b600080fd5b6000601f19601f8301169050919050565b7f4e487b7100000000000000000000000000000000000000000000000000000000600052604160045260246000fd5b6102c282610279565b810181811067ffffffffffffffff821117156102e1576102e061028a565b5b80604052505050565b60006102f4610260565b905061030082826102b9565b919050565b600067ffffffffffffffff8211156103205761031f61028a565b5b602082029050602081019050919050565b600080fd5b61033f81610224565b811461034a57600080fd5b50565b60008135905061035c81610336565b92915050565b600061037561037084610305565b6102ea565b9050808382526020820190506020840283018581111561039857610397610331565b5b835b818110156103c157806103ad888261034d565b84526020840193505060208101905061039a565b5050509392505050565b600082601f8301126103e0576103df610274565b5b81356103f0848260208601610362565b91505092915050565b60006020828403121561040f5761040e61026a565b5b600082013567ffffffffffffffff81111561042d5761042c61026f565b5b610439848285016103cb565b91505092915050565b600082825260208201905092915050565b7f4e6f2062696464657273206f6e20746869732070726f64756374000000000000600082015250565b6000610489601a83610442565b915061049482610453565b602082019050919050565b600060208201905081810360008301526104b88161047c565b9050919050565b6000819050919050565b7f4e487b7100000000000000000000000000000000000000000000000000000000600052601260045260246000fd5b6000610503826104bf565b915061050e836104bf565b92508261051e5761051d6104c9565b5b828206905092915050565b6000610534826104bf565b915061053f836104bf565b92508261054f5761054e6104c9565b5b828204905092915050565b7f4e487b7100000000000000000000000000000000000000000000000000000000600052603260045260246000fd5b6000819050919050565b6105a461059f826104bf565b610589565b82525050565b60006105b68285610593565b6020820191506105c68284610593565b602082019150819050939250505056fea26469706673582212200e6c46c54380c63c5798a2b6a62fc1613aac70f76b912a58121fb07524629a7e64736f6c63430008180033",
  "linkReferences": {},
  "deployedLinkReferences": {}
}