{
  "contracts/Lottery.sol": {
    "Lottery": {
      "abi": [
        {
          "inputs": [],
          "name": "getWinner",
          "outputs": [
            {
              "internalType": "address",
              "name": "",
              "type": "address"
            }
          ],
          "stateMutability": "view",
          "type": "function"
        },
        {
          "inputs": [
            {
              "internalType": "address[]",
              "name": "bidders",
              "type": "address[]"
            }
          ],
          "name": "winnerpick",
          "outputs": [],
          "stateMutability": "payable",
          "type": "function"
        }
      ],
      "evm": {
        "bytecode": {
          "linkReferences": {},
          "object": "608060405234801561001057600080fd5b5061060c806100206000396000f3fe6080604052600436106100295760003560e01c80638e7ea5b21461002e578063d201447514610059575b600080fd5b34801561003a57600080fd5b50610043610075565b6040516100509190610245565b60405180910390f35b610073600480360381019061006e91906103f9565b61009e565b005b60008060009054906101000a900473ffffffffffffffffffffffffffffffffffffffff16905090565b60008151116100e2576040517f08c379a00000000000000000000000000000000000000000000000000000000081526004016100d99061049f565b60405180910390fd5b600081516100f042846101cd565b6100fa91906104f8565b9050600060034761010b9190610529565b90508282815181106101205761011f61055a565b5b60200260200101516000806101000a81548173ffffffffffffffffffffffffffffffffffffffff021916908373ffffffffffffffffffffffffffffffffffffffff16021790555082828151811061017a5761017961055a565b5b602002602001015173ffffffffffffffffffffffffffffffffffffffff166108fc829081150290604051600060405180830381858888f193505050501580156101c7573d6000803e3d6000fd5b50505050565b60008282516040516020016101e39291906105aa565b6040516020818303038152906040528051906020012060001c905092915050565b600073ffffffffffffffffffffffffffffffffffffffff82169050919050565b600061022f82610204565b9050919050565b61023f81610224565b82525050565b600060208201905061025a6000830184610236565b92915050565b6000604051905090565b600080fd5b600080fd5b600080fd5b6000601f19601f8301169050919050565b7f4e487b7100000000000000000000000000000000000000000000000000000000600052604160045260246000fd5b6102c282610279565b810181811067ffffffffffffffff821117156102e1576102e061028a565b5b80604052505050565b60006102f4610260565b905061030082826102b9565b919050565b600067ffffffffffffffff8211156103205761031f61028a565b5b602082029050602081019050919050565b600080fd5b61033f81610224565b811461034a57600080fd5b50565b60008135905061035c81610336565b92915050565b600061037561037084610305565b6102ea565b9050808382526020820190506020840283018581111561039857610397610331565b5b835b818110156103c157806103ad888261034d565b84526020840193505060208101905061039a565b5050509392505050565b600082601f8301126103e0576103df610274565b5b81356103f0848260208601610362565b91505092915050565b60006020828403121561040f5761040e61026a565b5b600082013567ffffffffffffffff81111561042d5761042c61026f565b5b610439848285016103cb565b91505092915050565b600082825260208201905092915050565b7f4e6f2062696464657273206f6e20746869732070726f64756374000000000000600082015250565b6000610489601a83610442565b915061049482610453565b602082019050919050565b600060208201905081810360008301526104b88161047c565b9050919050565b6000819050919050565b7f4e487b7100000000000000000000000000000000000000000000000000000000600052601260045260246000fd5b6000610503826104bf565b915061050e836104bf565b92508261051e5761051d6104c9565b5b828206905092915050565b6000610534826104bf565b915061053f836104bf565b92508261054f5761054e6104c9565b5b828204905092915050565b7f4e487b7100000000000000000000000000000000000000000000000000000000600052603260045260246000fd5b6000819050919050565b6105a461059f826104bf565b610589565b82525050565b60006105b68285610593565b6020820191506105c68284610593565b602082019150819050939250505056fea26469706673582212200e6c46c54380c63c5798a2b6a62fc1613aac70f76b912a58121fb07524629a7e64736f6c63430008180033",
          "opcodes": "PUSH1 0x80 PUSH1 0x40 MSTORE CALLVALUE DUP1 ISZERO PUSH2 0x10 JUMPI PUSH1 0x0 DUP1 REVERT JUMPDEST POP PUSH2 0x60C DUP1 PUSH2 0x20 PUSH1 0x0 CODECOPY PUSH1 0x0 RETURN INVALID PUSH1 0x80 PUSH1 0x40 MSTORE PUSH1 0x4 CALLDATASIZE LT PUSH2 0x29 JUMPI PUSH1 0x0 CALLDATALOAD PUSH1 0xE0 SHR DUP1 PUSH4 0x8E7EA5B2 EQ PUSH2 0x2E JUMPI DUP1 PUSH4 0xD2014475 EQ PUSH2 0x59 JUMPI JUMPDEST PUSH1 0x0 DUP1 REVERT JUMPDEST CALLVALUE DUP1 ISZERO PUSH2 0x3A JUMPI PUSH1 0x0 DUP1 REVERT JUMPDEST POP PUSH2 0x43 PUSH2 0x75 JUMP JUMPDEST PUSH1 0x40 MLOAD PUSH2 0x50 SWAP2 SWAP1 PUSH2 0x245 JUMP JUMPDEST PUSH1 0x40 MLOAD DUP1 SWAP2 SUB SWAP1 RETURN JUMPDEST PUSH2 0x73 PUSH1 0x4 DUP1 CALLDATASIZE SUB DUP2 ADD SWAP1 PUSH2 0x6E SWAP2 SWAP1 PUSH2 0x3F9 JUMP JUMPDEST PUSH2 0x9E JUMP JUMPDEST STOP JUMPDEST PUSH1 0x0 DUP1 PUSH1 0x0 SWAP1 SLOAD SWAP1 PUSH2 0x100 EXP SWAP1 DIV PUSH20 0xFFFFFFFFFFFFFFFFFFFFFFFFFFFFFFFFFFFFFFFF AND SWAP1 POP SWAP1 JUMP JUMPDEST PUSH1 0x0 DUP2 MLOAD GT PUSH2 0xE2 JUMPI PUSH1 0x40 MLOAD PUSH32 0x8C379A000000000000000000000000000000000000000000000000000000000 DUP2 MSTORE PUSH1 0x4 ADD PUSH2 0xD9 SWAP1 PUSH2 0x49F JUMP JUMPDEST PUSH1 0x40 MLOAD DUP1 SWAP2 SUB SWAP1 REVERT JUMPDEST PUSH1 0x0 DUP2 MLOAD PUSH2 0xF0 TIMESTAMP DUP5 PUSH2 0x1CD JUMP JUMPDEST PUSH2 0xFA SWAP2 SWAP1 PUSH2 0x4F8 JUMP JUMPDEST SWAP1 POP PUSH1 0x0 PUSH1 0x3 SELFBALANCE PUSH2 0x10B SWAP2 SWAP1 PUSH2 0x529 JUMP JUMPDEST SWAP1 POP DUP3 DUP3 DUP2 MLOAD DUP2 LT PUSH2 0x120 JUMPI PUSH2 0x11F PUSH2 0x55A JUMP JUMPDEST JUMPDEST PUSH1 0x20 MUL PUSH1 0x20 ADD ADD MLOAD PUSH1 0x0 DUP1 PUSH2 0x100 EXP DUP2 SLOAD DUP2 PUSH20 0xFFFFFFFFFFFFFFFFFFFFFFFFFFFFFFFFFFFFFFFF MUL NOT AND SWAP1 DUP4 PUSH20 0xFFFFFFFFFFFFFFFFFFFFFFFFFFFFFFFFFFFFFFFF AND MUL OR SWAP1 SSTORE POP DUP3 DUP3 DUP2 MLOAD DUP2 LT PUSH2 0x17A JUMPI PUSH2 0x179 PUSH2 0x55A JUMP JUMPDEST JUMPDEST PUSH1 0x20 MUL PUSH1 0x20 ADD ADD MLOAD PUSH20 0xFFFFFFFFFFFFFFFFFFFFFFFFFFFFFFFFFFFFFFFF AND PUSH2 0x8FC DUP3 SWAP1 DUP2 ISZERO MUL SWAP1 PUSH1 0x40 MLOAD PUSH1 0x0 PUSH1 0x40 MLOAD DUP1 DUP4 SUB DUP2 DUP6 DUP9 DUP9 CALL SWAP4 POP POP POP POP ISZERO DUP1 ISZERO PUSH2 0x1C7 JUMPI RETURNDATASIZE PUSH1 0x0 DUP1 RETURNDATACOPY RETURNDATASIZE PUSH1 0x0 REVERT JUMPDEST POP POP POP POP JUMP JUMPDEST PUSH1 0x0 DUP3 DUP3 MLOAD PUSH1 0x40 MLOAD PUSH1 0x20 ADD PUSH2 0x1E3 SWAP3 SWAP2 SWAP1 PUSH2 0x5AA JUMP JUMPDEST PUSH1 0x40 MLOAD PUSH1 0x20 DUP2 DUP4 SUB SUB DUP2 MSTORE SWAP1 PUSH1 0x40 MSTORE DUP1 MLOAD SWAP1 PUSH1 0x20 ADD KECCAK256 PUSH1 0x0 SHR SWAP1 POP SWAP3 SWAP2 POP POP JUMP JUMPDEST PUSH1 0x0 PUSH20 0xFFFFFFFFFFFFFFFFFFFFFFFFFFFFFFFFFFFFFFFF DUP3 AND SWAP1 POP SWAP2 SWAP1 POP JUMP JUMPDEST PUSH1 0x0 PUSH2 0x22F DUP3 PUSH2 0x204 JUMP JUMPDEST SWAP1 POP SWAP2 SWAP1 POP JUMP JUMPDEST PUSH2 0x23F DUP2 PUSH2 0x224 JUMP JUMPDEST DUP3 MSTORE POP POP JUMP JUMPDEST PUSH1 0x0 PUSH1 0x20 DUP3 ADD SWAP1 POP PUSH2 0x25A PUSH1 0x0 DUP4 ADD DUP5 PUSH2 0x236 JUMP JUMPDEST SWAP3 SWAP2 POP POP JUMP JUMPDEST PUSH1 0x0 PUSH1 0x40 MLOAD SWAP1 POP SWAP1 JUMP JUMPDEST PUSH1 0x0 DUP1 REVERT JUMPDEST PUSH1 0x0 DUP1 REVERT JUMPDEST PUSH1 0x0 DUP1 REVERT JUMPDEST PUSH1 0x0 PUSH1 0x1F NOT PUSH1 0x1F DUP4 ADD AND SWAP1 POP SWAP2 SWAP1 POP JUMP JUMPDEST PUSH32 0x4E487B7100000000000000000000000000000000000000000000000000000000 PUSH1 0x0 MSTORE PUSH1 0x41 PUSH1 0x4 MSTORE PUSH1 0x24 PUSH1 0x0 REVERT JUMPDEST PUSH2 0x2C2 DUP3 PUSH2 0x279 JUMP JUMPDEST DUP2 ADD DUP2 DUP2 LT PUSH8 0xFFFFFFFFFFFFFFFF DUP3 GT OR ISZERO PUSH2 0x2E1 JUMPI PUSH2 0x2E0 PUSH2 0x28A JUMP JUMPDEST JUMPDEST DUP1 PUSH1 0x40 MSTORE POP POP POP JUMP JUMPDEST PUSH1 0x0 PUSH2 0x2F4 PUSH2 0x260 JUMP JUMPDEST SWAP1 POP PUSH2 0x300 DUP3 DUP3 PUSH2 0x2B9 JUMP JUMPDEST SWAP2 SWAP1 POP JUMP JUMPDEST PUSH1 0x0 PUSH8 0xFFFFFFFFFFFFFFFF DUP3 GT ISZERO PUSH2 0x320 JUMPI PUSH2 0x31F PUSH2 0x28A JUMP JUMPDEST JUMPDEST PUSH1 0x20 DUP3 MUL SWAP1 POP PUSH1 0x20 DUP2 ADD SWAP1 POP SWAP2 SWAP1 POP JUMP JUMPDEST PUSH1 0x0 DUP1 REVERT JUMPDEST PUSH2 0x33F DUP2 PUSH2 0x224 JUMP JUMPDEST DUP2 EQ PUSH2 0x34A JUMPI PUSH1 0x0 DUP1 REVERT JUMPDEST POP JUMP JUMPDEST PUSH1 0x0 DUP2 CALLDATALOAD SWAP1 POP PUSH2 0x35C DUP2 PUSH2 0x336 JUMP JUMPDEST SWAP3 SWAP2 POP POP JUMP JUMPDEST PUSH1 0x0 PUSH2 0x375 PUSH2 0x370 DUP5 PUSH2 0x305 JUMP JUMPDEST PUSH2 0x2EA JUMP JUMPDEST SWAP1 POP DUP1 DUP4 DUP3 MSTORE PUSH1 0x20 DUP3 ADD SWAP1 POP PUSH1 0x20 DUP5 MUL DUP4 ADD DUP6 DUP2 GT ISZERO PUSH2 0x398 JUMPI PUSH2 0x397 PUSH2 0x331 JUMP JUMPDEST JUMPDEST DUP4 JUMPDEST DUP2 DUP2 LT ISZERO PUSH2 0x3C1 JUMPI DUP1 PUSH2 0x3AD DUP9 DUP3 PUSH2 0x34D JUMP JUMPDEST DUP5 MSTORE PUSH1 0x20 DUP5 ADD SWAP4 POP POP PUSH1 0x20 DUP2 ADD SWAP1 POP PUSH2 0x39A JUMP JUMPDEST POP POP POP SWAP4 SWAP3 POP POP POP JUMP JUMPDEST PUSH1 0x0 DUP3 PUSH1 0x1F DUP4 ADD SLT PUSH2 0x3E0 JUMPI PUSH2 0x3DF PUSH2 0x274 JUMP JUMPDEST JUMPDEST DUP2 CALLDATALOAD PUSH2 0x3F0 DUP5 DUP3 PUSH1 0x20 DUP7 ADD PUSH2 0x362 JUMP JUMPDEST SWAP2 POP POP SWAP3 SWAP2 POP POP JUMP JUMPDEST PUSH1 0x0 PUSH1 0x20 DUP3 DUP5 SUB SLT ISZERO PUSH2 0x40F JUMPI PUSH2 0x40E PUSH2 0x26A JUMP JUMPDEST JUMPDEST PUSH1 0x0 DUP3 ADD CALLDATALOAD PUSH8 0xFFFFFFFFFFFFFFFF DUP2 GT ISZERO PUSH2 0x42D JUMPI PUSH2 0x42C PUSH2 0x26F JUMP JUMPDEST JUMPDEST PUSH2 0x439 DUP5 DUP3 DUP6 ADD PUSH2 0x3CB JUMP JUMPDEST SWAP2 POP POP SWAP3 SWAP2 POP POP JUMP JUMPDEST PUSH1 0x0 DUP3 DUP3 MSTORE PUSH1 0x20 DUP3 ADD SWAP1 POP SWAP3 SWAP2 POP POP JUMP JUMPDEST PUSH32 0x4E6F2062696464657273206F6E20746869732070726F64756374000000000000 PUSH1 0x0 DUP3 ADD MSTORE POP JUMP JUMPDEST PUSH1 0x0 PUSH2 0x489 PUSH1 0x1A DUP4 PUSH2 0x442 JUMP JUMPDEST SWAP2 POP PUSH2 0x494 DUP3 PUSH2 0x453 JUMP JUMPDEST PUSH1 0x20 DUP3 ADD SWAP1 POP SWAP2 SWAP1 POP JUMP JUMPDEST PUSH1 0x0 PUSH1 0x20 DUP3 ADD SWAP1 POP DUP2 DUP2 SUB PUSH1 0x0 DUP4 ADD MSTORE PUSH2 0x4B8 DUP2 PUSH2 0x47C JUMP JUMPDEST SWAP1 POP SWAP2 SWAP1 POP JUMP JUMPDEST PUSH1 0x0 DUP2 SWAP1 POP SWAP2 SWAP1 POP JUMP JUMPDEST PUSH32 0x4E487B7100000000000000000000000000000000000000000000000000000000 PUSH1 0x0 MSTORE PUSH1 0x12 PUSH1 0x4 MSTORE PUSH1 0x24 PUSH1 0x0 REVERT JUMPDEST PUSH1 0x0 PUSH2 0x503 DUP3 PUSH2 0x4BF JUMP JUMPDEST SWAP2 POP PUSH2 0x50E DUP4 PUSH2 0x4BF JUMP JUMPDEST SWAP3 POP DUP3 PUSH2 0x51E JUMPI PUSH2 0x51D PUSH2 0x4C9 JUMP JUMPDEST JUMPDEST DUP3 DUP3 MOD SWAP1 POP SWAP3 SWAP2 POP POP JUMP JUMPDEST PUSH1 0x0 PUSH2 0x534 DUP3 PUSH2 0x4BF JUMP JUMPDEST SWAP2 POP PUSH2 0x53F DUP4 PUSH2 0x4BF JUMP JUMPDEST SWAP3 POP DUP3 PUSH2 0x54F JUMPI PUSH2 0x54E PUSH2 0x4C9 JUMP JUMPDEST JUMPDEST DUP3 DUP3 DIV SWAP1 POP SWAP3 SWAP2 POP POP JUMP JUMPDEST PUSH32 0x4E487B7100000000000000000000000000000000000000000000000000000000 PUSH1 0x0 MSTORE PUSH1 0x32 PUSH1 0x4 MSTORE PUSH1 0x24 PUSH1 0x0 REVERT JUMPDEST PUSH1 0x0 DUP2 SWAP1 POP SWAP2 SWAP1 POP JUMP JUMPDEST PUSH2 0x5A4 PUSH2 0x59F DUP3 PUSH2 0x4BF JUMP JUMPDEST PUSH2 0x589 JUMP JUMPDEST DUP3 MSTORE POP POP JUMP JUMPDEST PUSH1 0x0 PUSH2 0x5B6 DUP3 DUP6 PUSH2 0x593 JUMP JUMPDEST PUSH1 0x20 DUP3 ADD SWAP2 POP PUSH2 0x5C6 DUP3 DUP5 PUSH2 0x593 JUMP JUMPDEST PUSH1 0x20 DUP3 ADD SWAP2 POP DUP2 SWAP1 POP SWAP4 SWAP3 POP POP POP JUMP INVALID LOG2 PUSH5 0x6970667358 0x22 SLT KECCAK256 0xE PUSH13 0x46C54380C63C5798A2B6A62FC1 PUSH2 0x3AAC PUSH17 0xF76B912A58121FB07524629A7E64736F6C PUSH4 0x43000818 STOP CALLER "
        },
        "methodIdentifiers": {
          "getWinner()": "8e7ea5b2",
          "winnerpick(address[])": "d2014475"
        }
      }
    }
  }
}